{
  "_format": "hh-sol-artifact-1",
  "contractName": "OPChad",
  "sourceName": "contracts/OPChad.sol",
  "abi": [
    {
      "inputs": [
        {
          "internalType": "address",
          "name": "defaultAdmin",
          "type": "address"
        },
        {
          "internalType": "address",
          "name": "minter",
          "type": "address"
        }
      ],
      "stateMutability": "nonpayable",
      "type": "constructor"
    },
    {
      "inputs": [],
      "name": "AccessControlBadConfirmation",
      "type": "error"
    },
    {
      "inputs": [
        {
          "internalType": "address",
          "name": "account",
          "type": "address"
        },
        {
          "internalType": "bytes32",
          "name": "neededRole",
          "type": "bytes32"
        }
      ],
      "name": "AccessControlUnauthorizedAccount",
      "type": "error"
    },
    {
      "inputs": [
        {
          "internalType": "address",
          "name": "spender",
          "type": "address"
        },
        {
          "internalType": "uint256",
          "name": "allowance",
          "type": "uint256"
        },
        {
          "internalType": "uint256",
          "name": "needed",
          "type": "uint256"
        }
      ],
      "name": "ERC20InsufficientAllowance",
      "type": "error"
    },
    {
      "inputs": [
        {
          "internalType": "address",
          "name": "sender",
          "type": "address"
        },
        {
          "internalType": "uint256",
          "name": "balance",
          "type": "uint256"
        },
        {
          "internalType": "uint256",
          "name": "needed",
          "type": "uint256"
        }
      ],
      "name": "ERC20InsufficientBalance",
      "type": "error"
    },
    {
      "inputs": [
        {
          "internalType": "address",
          "name": "approver",
          "type": "address"
        }
      ],
      "name": "ERC20InvalidApprover",
      "type": "error"
    },
    {
      "inputs": [
        {
          "internalType": "address",
          "name": "receiver",
          "type": "address"
        }
      ],
      "name": "ERC20InvalidReceiver",
      "type": "error"
    },
    {
      "inputs": [
        {
          "internalType": "address",
          "name": "sender",
          "type": "address"
        }
      ],
      "name": "ERC20InvalidSender",
      "type": "error"
    },
    {
      "inputs": [
        {
          "internalType": "address",
          "name": "spender",
          "type": "address"
        }
      ],
      "name": "ERC20InvalidSpender",
      "type": "error"
    },
    {
      "anonymous": false,
      "inputs": [
        {
          "indexed": true,
          "internalType": "address",
          "name": "owner",
          "type": "address"
        },
        {
          "indexed": true,
          "internalType": "address",
          "name": "spender",
          "type": "address"
        },
        {
          "indexed": false,
          "internalType": "uint256",
          "name": "value",
          "type": "uint256"
        }
      ],
      "name": "Approval",
      "type": "event"
    },
    {
      "anonymous": false,
      "inputs": [
        {
          "indexed": true,
          "internalType": "bytes32",
          "name": "role",
          "type": "bytes32"
        },
        {
          "indexed": true,
          "internalType": "bytes32",
          "name": "previousAdminRole",
          "type": "bytes32"
        },
        {
          "indexed": true,
          "internalType": "bytes32",
          "name": "newAdminRole",
          "type": "bytes32"
        }
      ],
      "name": "RoleAdminChanged",
      "type": "event"
    },
    {
      "anonymous": false,
      "inputs": [
        {
          "indexed": true,
          "internalType": "bytes32",
          "name": "role",
          "type": "bytes32"
        },
        {
          "indexed": true,
          "internalType": "address",
          "name": "account",
          "type": "address"
        },
        {
          "indexed": true,
          "internalType": "address",
          "name": "sender",
          "type": "address"
        }
      ],
      "name": "RoleGranted",
      "type": "event"
    },
    {
      "anonymous": false,
      "inputs": [
        {
          "indexed": true,
          "internalType": "bytes32",
          "name": "role",
          "type": "bytes32"
        },
        {
          "indexed": true,
          "internalType": "address",
          "name": "account",
          "type": "address"
        },
        {
          "indexed": true,
          "internalType": "address",
          "name": "sender",
          "type": "address"
        }
      ],
      "name": "RoleRevoked",
      "type": "event"
    },
    {
      "anonymous": false,
      "inputs": [
        {
          "indexed": true,
          "internalType": "address",
          "name": "from",
          "type": "address"
        },
        {
          "indexed": true,
          "internalType": "address",
          "name": "to",
          "type": "address"
        },
        {
          "indexed": false,
          "internalType": "uint256",
          "name": "value",
          "type": "uint256"
        }
      ],
      "name": "Transfer",
      "type": "event"
    },
    {
      "inputs": [],
      "name": "DEFAULT_ADMIN_ROLE",
      "outputs": [
        {
          "internalType": "bytes32",
          "name": "",
          "type": "bytes32"
        }
      ],
      "stateMutability": "view",
      "type": "function"
    },
    {
      "inputs": [],
      "name": "MAX_SUPPLY",
      "outputs": [
        {
          "internalType": "uint256",
          "name": "",
          "type": "uint256"
        }
      ],
      "stateMutability": "view",
      "type": "function"
    },
    {
      "inputs": [],
      "name": "MINTER_ROLE",
      "outputs": [
        {
          "internalType": "bytes32",
          "name": "",
          "type": "bytes32"
        }
      ],
      "stateMutability": "view",
      "type": "function"
    },
    {
      "inputs": [
        {
          "internalType": "address",
          "name": "owner",
          "type": "address"
        },
        {
          "internalType": "address",
          "name": "spender",
          "type": "address"
        }
      ],
      "name": "allowance",
      "outputs": [
        {
          "internalType": "uint256",
          "name": "",
          "type": "uint256"
        }
      ],
      "stateMutability": "view",
      "type": "function"
    },
    {
      "inputs": [
        {
          "internalType": "address",
          "name": "spender",
          "type": "address"
        },
        {
          "internalType": "uint256",
          "name": "value",
          "type": "uint256"
        }
      ],
      "name": "approve",
      "outputs": [
        {
          "internalType": "bool",
          "name": "",
          "type": "bool"
        }
      ],
      "stateMutability": "nonpayable",
      "type": "function"
    },
    {
      "inputs": [
        {
          "internalType": "address",
          "name": "account",
          "type": "address"
        }
      ],
      "name": "balanceOf",
      "outputs": [
        {
          "internalType": "uint256",
          "name": "",
          "type": "uint256"
        }
      ],
      "stateMutability": "view",
      "type": "function"
    },
    {
      "inputs": [],
      "name": "decimals",
      "outputs": [
        {
          "internalType": "uint8",
          "name": "",
          "type": "uint8"
        }
      ],
      "stateMutability": "view",
      "type": "function"
    },
    {
      "inputs": [
        {
          "internalType": "bytes32",
          "name": "role",
          "type": "bytes32"
        }
      ],
      "name": "getRoleAdmin",
      "outputs": [
        {
          "internalType": "bytes32",
          "name": "",
          "type": "bytes32"
        }
      ],
      "stateMutability": "view",
      "type": "function"
    },
    {
      "inputs": [
        {
          "internalType": "bytes32",
          "name": "role",
          "type": "bytes32"
        },
        {
          "internalType": "address",
          "name": "account",
          "type": "address"
        }
      ],
      "name": "grantRole",
      "outputs": [],
      "stateMutability": "nonpayable",
      "type": "function"
    },
    {
      "inputs": [
        {
          "internalType": "bytes32",
          "name": "role",
          "type": "bytes32"
        },
        {
          "internalType": "address",
          "name": "account",
          "type": "address"
        }
      ],
      "name": "hasRole",
      "outputs": [
        {
          "internalType": "bool",
          "name": "",
          "type": "bool"
        }
      ],
      "stateMutability": "view",
      "type": "function"
    },
    {
      "inputs": [
        {
          "internalType": "address",
          "name": "to",
          "type": "address"
        },
        {
          "internalType": "uint256",
          "name": "amount",
          "type": "uint256"
        }
      ],
      "name": "mint",
      "outputs": [
        {
          "internalType": "bool",
          "name": "",
          "type": "bool"
        }
      ],
      "stateMutability": "nonpayable",
      "type": "function"
    },
    {
      "inputs": [],
      "name": "name",
      "outputs": [
        {
          "internalType": "string",
          "name": "",
          "type": "string"
        }
      ],
      "stateMutability": "view",
      "type": "function"
    },
    {
      "inputs": [
        {
          "internalType": "bytes32",
          "name": "role",
          "type": "bytes32"
        },
        {
          "internalType": "address",
          "name": "callerConfirmation",
          "type": "address"
        }
      ],
      "name": "renounceRole",
      "outputs": [],
      "stateMutability": "nonpayable",
      "type": "function"
    },
    {
      "inputs": [
        {
          "internalType": "bytes32",
          "name": "role",
          "type": "bytes32"
        },
        {
          "internalType": "address",
          "name": "account",
          "type": "address"
        }
      ],
      "name": "revokeRole",
      "outputs": [],
      "stateMutability": "nonpayable",
      "type": "function"
    },
    {
      "inputs": [
        {
          "internalType": "bytes4",
          "name": "interfaceId",
          "type": "bytes4"
        }
      ],
      "name": "supportsInterface",
      "outputs": [
        {
          "internalType": "bool",
          "name": "",
          "type": "bool"
        }
      ],
      "stateMutability": "view",
      "type": "function"
    },
    {
      "inputs": [],
      "name": "symbol",
      "outputs": [
        {
          "internalType": "string",
          "name": "",
          "type": "string"
        }
      ],
      "stateMutability": "view",
      "type": "function"
    },
    {
      "inputs": [],
      "name": "totalSupply",
      "outputs": [
        {
          "internalType": "uint256",
          "name": "",
          "type": "uint256"
        }
      ],
      "stateMutability": "view",
      "type": "function"
    },
    {
      "inputs": [
        {
          "internalType": "address",
          "name": "to",
          "type": "address"
        },
        {
          "internalType": "uint256",
          "name": "value",
          "type": "uint256"
        }
      ],
      "name": "transfer",
      "outputs": [
        {
          "internalType": "bool",
          "name": "",
          "type": "bool"
        }
      ],
      "stateMutability": "nonpayable",
      "type": "function"
    },
    {
      "inputs": [
        {
          "internalType": "address",
          "name": "from",
          "type": "address"
        },
        {
          "internalType": "address",
          "name": "to",
          "type": "address"
        },
        {
          "internalType": "uint256",
          "name": "value",
          "type": "uint256"
        }
      ],
      "name": "transferFrom",
      "outputs": [
        {
          "internalType": "bool",
          "name": "",
          "type": "bool"
        }
      ],
      "stateMutability": "nonpayable",
      "type": "function"
    }
  ],
  "bytecode": "0x60806040523480156200001157600080fd5b5060405162000f5a38038062000f5a8339810160408190526200003491620001a7565b6040518060400160405280600681526020016513d410da185960d21b815250604051806040016040528060038152602001624f504360e81b815250816003908162000080919062000286565b5060046200008f828262000286565b50620000a191506000905083620000d7565b50620000ce7f9f2df0fed2c77648de5860a4cc508cd0818c85b8b8a1ab4ceeef8d981c8956a682620000d7565b50505062000352565b60008281526005602090815260408083206001600160a01b038516845290915281205460ff16620001805760008381526005602090815260408083206001600160a01b03861684529091529020805460ff19166001179055620001373390565b6001600160a01b0316826001600160a01b0316847f2f8788117e7eff1d82e926ec794901d17c78024a50270940304540a733656f0d60405160405180910390a450600162000184565b5060005b92915050565b80516001600160a01b0381168114620001a257600080fd5b919050565b60008060408385031215620001bb57600080fd5b620001c6836200018a565b9150620001d6602084016200018a565b90509250929050565b634e487b7160e01b600052604160045260246000fd5b600181811c908216806200020a57607f821691505b6020821081036200022b57634e487b7160e01b600052602260045260246000fd5b50919050565b601f82111562000281576000816000526020600020601f850160051c810160208610156200025c5750805b601f850160051c820191505b818110156200027d5782815560010162000268565b5050505b505050565b81516001600160401b03811115620002a257620002a2620001df565b620002ba81620002b38454620001f5565b8462000231565b602080601f831160018114620002f25760008415620002d95750858301515b600019600386901b1c1916600185901b1785556200027d565b600085815260208120601f198616915b82811015620003235788860151825594840194600190910190840162000302565b5085821015620003425787850151600019600388901b60f8161c191681555b5050505050600190811b01905550565b610bf880620003626000396000f3fe608060405234801561001057600080fd5b50600436106101215760003560e01c806336568abe116100ad578063a217fddf11610071578063a217fddf1461025f578063a9059cbb14610267578063d53913931461027a578063d547741f146102a1578063dd62ed3e146102b457600080fd5b806336568abe146101f557806340c10f191461020857806370a082311461021b57806391d148541461024457806395d89b411461025757600080fd5b806323b872dd116100f457806323b872dd14610188578063248a9ca31461019b5780632f2ff15d146101be578063313ce567146101d357806332cb6b0c146101e257600080fd5b806301ffc9a71461012657806306fdde031461014e578063095ea7b31461016357806318160ddd14610176575b600080fd5b6101396101343660046109db565b6102ed565b60405190151581526020015b60405180910390f35b610156610324565b6040516101459190610a0c565b610139610171366004610a77565b6103b6565b6002545b604051908152602001610145565b610139610196366004610aa1565b6103ce565b61017a6101a9366004610add565b60009081526005602052604090206001015490565b6101d16101cc366004610af6565b6103f2565b005b60405160128152602001610145565b61017a6b033b2e3c9fd0803ce800000081565b6101d1610203366004610af6565b61041d565b610139610216366004610a77565b610455565b61017a610229366004610b22565b6001600160a01b031660009081526020819052604090205490565b610139610252366004610af6565b6104ff565b61015661052a565b61017a600081565b610139610275366004610a77565b610539565b61017a7f9f2df0fed2c77648de5860a4cc508cd0818c85b8b8a1ab4ceeef8d981c8956a681565b6101d16102af366004610af6565b610547565b61017a6102c2366004610b3d565b6001600160a01b03918216600090815260016020908152604080832093909416825291909152205490565b60006001600160e01b03198216637965db0b60e01b148061031e57506301ffc9a760e01b6001600160e01b03198316145b92915050565b60606003805461033390610b67565b80601f016020809104026020016040519081016040528092919081815260200182805461035f90610b67565b80156103ac5780601f10610381576101008083540402835291602001916103ac565b820191906000526020600020905b81548152906001019060200180831161038f57829003601f168201915b5050505050905090565b6000336103c481858561056c565b5060019392505050565b6000336103dc858285610579565b6103e78585856105f1565b506001949350505050565b60008281526005602052604090206001015461040d81610650565b610417838361065d565b50505050565b6001600160a01b03811633146104465760405163334bd91960e11b815260040160405180910390fd5b61045082826106f1565b505050565b60007f9f2df0fed2c77648de5860a4cc508cd0818c85b8b8a1ab4ceeef8d981c8956a661048181610650565b6b033b2e3c9fd0803ce80000008361049860025490565b6104a29190610ba1565b11156104f55760405162461bcd60e51b815260206004820152601d60248201527f43616e6e6f74206d696e74206265796f6e64206d617820737570706c7900000060448201526064015b60405180910390fd5b6103c4848461075e565b60009182526005602090815260408084206001600160a01b0393909316845291905290205460ff1690565b60606004805461033390610b67565b6000336103c48185856105f1565b60008281526005602052604090206001015461056281610650565b61041783836106f1565b6104508383836001610798565b6001600160a01b03838116600090815260016020908152604080832093861683529290522054600019811461041757818110156105e257604051637dc7a0d960e11b81526001600160a01b038416600482015260248101829052604481018390526064016104ec565b61041784848484036000610798565b6001600160a01b03831661061b57604051634b637e8f60e11b8152600060048201526024016104ec565b6001600160a01b0382166106455760405163ec442f0560e01b8152600060048201526024016104ec565b61045083838361086d565b61065a8133610878565b50565b600061066983836104ff565b6106e95760008381526005602090815260408083206001600160a01b03861684529091529020805460ff191660011790556106a13390565b6001600160a01b0316826001600160a01b0316847f2f8788117e7eff1d82e926ec794901d17c78024a50270940304540a733656f0d60405160405180910390a450600161031e565b50600061031e565b60006106fd83836104ff565b156106e95760008381526005602090815260408083206001600160a01b0386168085529252808320805460ff1916905551339286917ff6391f5c32d9c69d2a47ea670b442974b53935d1edc7fd64eb21e047a839171b9190a450600161031e565b6001600160a01b0382166107885760405163ec442f0560e01b8152600060048201526024016104ec565b6107946000838361086d565b5050565b6001600160a01b0384166107c25760405163e602df0560e01b8152600060048201526024016104ec565b6001600160a01b0383166107ec57604051634a1406b160e11b8152600060048201526024016104ec565b6001600160a01b038085166000908152600160209081526040808320938716835292905220829055801561041757826001600160a01b0316846001600160a01b03167f8c5be1e5ebec7d5bd14f71427d1e84f3dd0314c0f7b2291e5b200ac8c7c3b9258460405161085f91815260200190565b60405180910390a350505050565b6104508383836108b1565b61088282826104ff565b6107945760405163e2517d3f60e01b81526001600160a01b0382166004820152602481018390526044016104ec565b6001600160a01b0383166108dc5780600260008282546108d19190610ba1565b9091555061094e9050565b6001600160a01b0383166000908152602081905260409020548181101561092f5760405163391434e360e21b81526001600160a01b038516600482015260248101829052604481018390526064016104ec565b6001600160a01b03841660009081526020819052604090209082900390555b6001600160a01b03821661096a57600280548290039055610989565b6001600160a01b03821660009081526020819052604090208054820190555b816001600160a01b0316836001600160a01b03167fddf252ad1be2c89b69c2b068fc378daa952ba7f163c4a11628f55a4df523b3ef836040516109ce91815260200190565b60405180910390a3505050565b6000602082840312156109ed57600080fd5b81356001600160e01b031981168114610a0557600080fd5b9392505050565b60006020808352835180602085015260005b81811015610a3a57858101830151858201604001528201610a1e565b506000604082860101526040601f19601f8301168501019250505092915050565b80356001600160a01b0381168114610a7257600080fd5b919050565b60008060408385031215610a8a57600080fd5b610a9383610a5b565b946020939093013593505050565b600080600060608486031215610ab657600080fd5b610abf84610a5b565b9250610acd60208501610a5b565b9150604084013590509250925092565b600060208284031215610aef57600080fd5b5035919050565b60008060408385031215610b0957600080fd5b82359150610b1960208401610a5b565b90509250929050565b600060208284031215610b3457600080fd5b610a0582610a5b565b60008060408385031215610b5057600080fd5b610b5983610a5b565b9150610b1960208401610a5b565b600181811c90821680610b7b57607f821691505b602082108103610b9b57634e487b7160e01b600052602260045260246000fd5b50919050565b8082018082111561031e57634e487b7160e01b600052601160045260246000fdfea2646970667358221220498e8351daf2f0d693703013d70487aa276ad4a50332b9cdaa400ee06f60b6e564736f6c63430008180033",
  "linkReferences": {},
  "deployedLinkReferences": {}
}