{
  "_format": "hh-sol-artifact-1",
  "contractName": "OPCHadClaim",
  "sourceName": "contracts/OPChadClaim.sol",
  "abi": [
    {
      "inputs": [
        {
          "internalType": "address",
          "name": "_opchad",
          "type": "address"
        },
        {
          "internalType": "address",
          "name": "_defaultAdmin",
          "type": "address"
        }
      ],
      "stateMutability": "nonpayable",
      "type": "constructor"
    },
    {
      "inputs": [],
      "name": "AccessControlBadConfirmation",
      "type": "error"
    },
    {
      "inputs": [
        {
          "internalType": "address",
          "name": "account",
          "type": "address"
        },
        {
          "internalType": "bytes32",
          "name": "neededRole",
          "type": "bytes32"
        }
      ],
      "name": "AccessControlUnauthorizedAccount",
      "type": "error"
    },
    {
      "anonymous": false,
      "inputs": [
        {
          "indexed": false,
          "internalType": "address",
          "name": "newAllowanceAddress",
          "type": "address"
        }
      ],
      "name": "AllowanceAddressChanged",
      "type": "event"
    },
    {
      "anonymous": false,
      "inputs": [
        {
          "indexed": true,
          "internalType": "address",
          "name": "user",
          "type": "address"
        },
        {
          "indexed": false,
          "internalType": "uint256",
          "name": "amount",
          "type": "uint256"
        }
      ],
      "name": "Claim",
      "type": "event"
    },
    {
      "anonymous": false,
      "inputs": [
        {
          "indexed": false,
          "internalType": "uint256",
          "name": "newStartTime",
          "type": "uint256"
        },
        {
          "indexed": false,
          "internalType": "uint256",
          "name": "newEndTime",
          "type": "uint256"
        }
      ],
      "name": "ClaimPeriodChanged",
      "type": "event"
    },
    {
      "anonymous": false,
      "inputs": [
        {
          "indexed": true,
          "internalType": "bytes32",
          "name": "merkleRoot",
          "type": "bytes32"
        }
      ],
      "name": "MerkleRootChanged",
      "type": "event"
    },
    {
      "anonymous": false,
      "inputs": [
        {
          "indexed": true,
          "internalType": "bytes32",
          "name": "role",
          "type": "bytes32"
        },
        {
          "indexed": true,
          "internalType": "bytes32",
          "name": "previousAdminRole",
          "type": "bytes32"
        },
        {
          "indexed": true,
          "internalType": "bytes32",
          "name": "newAdminRole",
          "type": "bytes32"
        }
      ],
      "name": "RoleAdminChanged",
      "type": "event"
    },
    {
      "anonymous": false,
      "inputs": [
        {
          "indexed": true,
          "internalType": "bytes32",
          "name": "role",
          "type": "bytes32"
        },
        {
          "indexed": true,
          "internalType": "address",
          "name": "account",
          "type": "address"
        },
        {
          "indexed": true,
          "internalType": "address",
          "name": "sender",
          "type": "address"
        }
      ],
      "name": "RoleGranted",
      "type": "event"
    },
    {
      "anonymous": false,
      "inputs": [
        {
          "indexed": true,
          "internalType": "bytes32",
          "name": "role",
          "type": "bytes32"
        },
        {
          "indexed": true,
          "internalType": "address",
          "name": "account",
          "type": "address"
        },
        {
          "indexed": true,
          "internalType": "address",
          "name": "sender",
          "type": "address"
        }
      ],
      "name": "RoleRevoked",
      "type": "event"
    },
    {
      "inputs": [],
      "name": "DEFAULT_ADMIN_ROLE",
      "outputs": [
        {
          "internalType": "bytes32",
          "name": "",
          "type": "bytes32"
        }
      ],
      "stateMutability": "view",
      "type": "function"
    },
    {
      "inputs": [],
      "name": "allowanceAddress",
      "outputs": [
        {
          "internalType": "address",
          "name": "",
          "type": "address"
        }
      ],
      "stateMutability": "view",
      "type": "function"
    },
    {
      "inputs": [
        {
          "internalType": "uint256",
          "name": "claimAmount",
          "type": "uint256"
        },
        {
          "internalType": "bytes32[]",
          "name": "proof",
          "type": "bytes32[]"
        }
      ],
      "name": "claimRewards",
      "outputs": [],
      "stateMutability": "nonpayable",
      "type": "function"
    },
    {
      "inputs": [
        {
          "internalType": "address",
          "name": "",
          "type": "address"
        }
      ],
      "name": "claimed",
      "outputs": [
        {
          "internalType": "bool",
          "name": "",
          "type": "bool"
        }
      ],
      "stateMutability": "view",
      "type": "function"
    },
    {
      "inputs": [],
      "name": "endTime",
      "outputs": [
        {
          "internalType": "uint256",
          "name": "",
          "type": "uint256"
        }
      ],
      "stateMutability": "view",
      "type": "function"
    },
    {
      "inputs": [
        {
          "internalType": "bytes32",
          "name": "role",
          "type": "bytes32"
        }
      ],
      "name": "getRoleAdmin",
      "outputs": [
        {
          "internalType": "bytes32",
          "name": "",
          "type": "bytes32"
        }
      ],
      "stateMutability": "view",
      "type": "function"
    },
    {
      "inputs": [
        {
          "internalType": "bytes32",
          "name": "role",
          "type": "bytes32"
        },
        {
          "internalType": "address",
          "name": "account",
          "type": "address"
        }
      ],
      "name": "grantRole",
      "outputs": [],
      "stateMutability": "nonpayable",
      "type": "function"
    },
    {
      "inputs": [
        {
          "internalType": "bytes32",
          "name": "role",
          "type": "bytes32"
        },
        {
          "internalType": "address",
          "name": "account",
          "type": "address"
        }
      ],
      "name": "hasRole",
      "outputs": [
        {
          "internalType": "bool",
          "name": "",
          "type": "bool"
        }
      ],
      "stateMutability": "view",
      "type": "function"
    },
    {
      "inputs": [],
      "name": "merkleRoot",
      "outputs": [
        {
          "internalType": "bytes32",
          "name": "",
          "type": "bytes32"
        }
      ],
      "stateMutability": "view",
      "type": "function"
    },
    {
      "inputs": [],
      "name": "opchad",
      "outputs": [
        {
          "internalType": "address",
          "name": "",
          "type": "address"
        }
      ],
      "stateMutability": "view",
      "type": "function"
    },
    {
      "inputs": [
        {
          "internalType": "bytes32",
          "name": "role",
          "type": "bytes32"
        },
        {
          "internalType": "address",
          "name": "callerConfirmation",
          "type": "address"
        }
      ],
      "name": "renounceRole",
      "outputs": [],
      "stateMutability": "nonpayable",
      "type": "function"
    },
    {
      "inputs": [
        {
          "internalType": "bytes32",
          "name": "role",
          "type": "bytes32"
        },
        {
          "internalType": "address",
          "name": "account",
          "type": "address"
        }
      ],
      "name": "revokeRole",
      "outputs": [],
      "stateMutability": "nonpayable",
      "type": "function"
    },
    {
      "inputs": [
        {
          "internalType": "address",
          "name": "_allowanceAddress",
          "type": "address"
        }
      ],
      "name": "setAllowanceAddress",
      "outputs": [],
      "stateMutability": "nonpayable",
      "type": "function"
    },
    {
      "inputs": [
        {
          "internalType": "uint256",
          "name": "_startTime",
          "type": "uint256"
        },
        {
          "internalType": "uint256",
          "name": "_endTime",
          "type": "uint256"
        }
      ],
      "name": "setClaimPeriod",
      "outputs": [],
      "stateMutability": "nonpayable",
      "type": "function"
    },
    {
      "inputs": [
        {
          "internalType": "bytes32",
          "name": "_merkleRoot",
          "type": "bytes32"
        }
      ],
      "name": "setMerkleRoot",
      "outputs": [],
      "stateMutability": "nonpayable",
      "type": "function"
    },
    {
      "inputs": [],
      "name": "startTime",
      "outputs": [
        {
          "internalType": "uint256",
          "name": "",
          "type": "uint256"
        }
      ],
      "stateMutability": "view",
      "type": "function"
    },
    {
      "inputs": [
        {
          "internalType": "bytes4",
          "name": "interfaceId",
          "type": "bytes4"
        }
      ],
      "name": "supportsInterface",
      "outputs": [
        {
          "internalType": "bool",
          "name": "",
          "type": "bool"
        }
      ],
      "stateMutability": "view",
      "type": "function"
    }
  ],
  "bytecode": "0x608060405234801561001057600080fd5b50604051610cfc380380610cfc83398101604081905261002f91610125565b600180546001600160a01b0319166001600160a01b03841617905561005560008261005d565b505050610158565b6000828152602081815260408083206001600160a01b038516845290915281205460ff166100ff576000838152602081815260408083206001600160a01b03861684529091529020805460ff191660011790556100b73390565b6001600160a01b0316826001600160a01b0316847f2f8788117e7eff1d82e926ec794901d17c78024a50270940304540a733656f0d60405160405180910390a4506001610103565b5060005b92915050565b80516001600160a01b038116811461012057600080fd5b919050565b6000806040838503121561013857600080fd5b61014183610109565b915061014f60208401610109565b90509250929050565b610b95806101676000396000f3fe608060405234801561001057600080fd5b506004361061010b5760003560e01c8063436f1c07116100a2578063a217fddf11610071578063a217fddf14610223578063abd40e1e1461022b578063c884ef831461023e578063d547741f14610261578063df6ec1bd1461027457600080fd5b8063436f1c07146101e157806378e97925146101f45780637cb64759146101fd57806391d148541461021057600080fd5b80632eb4a7ab116100de5780632eb4a7ab146101a95780632f2ff15d146101b25780633197cbb6146101c557806336568abe146101ce57600080fd5b806301ffc9a71461011057806308f53f4414610138578063248a9ca31461014d57806328bca27c1461017e575b600080fd5b61012361011e366004610966565b610287565b60405190151581526020015b60405180910390f35b61014b6101463660046109ac565b6102be565b005b61017061015b3660046109c7565b60009081526020819052604090206001015490565b60405190815260200161012f565b600454610191906001600160a01b031681565b6040516001600160a01b03909116815260200161012f565b61017060055481565b61014b6101c03660046109e0565b61031e565b61017060035481565b61014b6101dc3660046109e0565b610349565b600154610191906001600160a01b031681565b61017060025481565b61014b61020b3660046109c7565b610381565b61012361021e3660046109e0565b6103c0565b610170600081565b61014b610239366004610a22565b6103e9565b61012361024c3660046109ac565b60066020526000908152604090205460ff1681565b61014b61026f3660046109e0565b61071c565b61014b610282366004610aec565b610741565b60006001600160e01b03198216637965db0b60e01b14806102b857506301ffc9a760e01b6001600160e01b03198316145b92915050565b60006102c981610794565b600480546001600160a01b0319166001600160a01b0384169081179091556040519081527f1bffe97991874af700885a72d46e2c541c5b853f6efd7ac3f62c1712cf62b28b9060200160405180910390a15050565b60008281526020819052604090206001015461033981610794565b61034383836107a1565b50505050565b6001600160a01b03811633146103725760405163334bd91960e11b815260040160405180910390fd5b61037c8282610833565b505050565b600061038c81610794565b600582905560405182907f1b930366dfeaa7eb3b325021e4ae81e36527063452ee55b86c95f85b36f4c31c90600090a25050565b6000918252602082815260408084206001600160a01b0393909316845291905290205460ff1690565b60025442101580156103fd57506003544211155b6104585760405162461bcd60e51b815260206004820152602160248201527f4572726f723a20436c61696d20706572696f64206973206e6f742061637469766044820152606560f81b60648201526084015b60405180910390fd5b3360009081526006602052604090205460ff16156104b15760405162461bcd60e51b8152602060048201526016602482015275115c9c9bdc8e88105b1c9958591e4818db185a5b595960521b604482015260640161044f565b600554604080513360208201529081018490526104e89183916060016040516020818303038152906040528051906020012061089e565b61052b5760405162461bcd60e51b815260206004820152601460248201527322b93937b91d1024b73b30b634b210383937b7b360611b604482015260640161044f565b60015460048054604051636eb1769f60e11b81526001600160a01b0391821692810192909252306024830152600092169063dd62ed3e90604401602060405180830381865afa158015610582573d6000803e3d6000fd5b505050506040513d601f19601f820116820180604052508101906105a69190610b0e565b9050828110156105f85760405162461bcd60e51b815260206004820152601d60248201527f4572726f723a20496e73756666696369656e7420616c6c6f77616e6365000000604482015260640161044f565b33600081815260066020526040808220805460ff19166001908117909155546004805492516323b872dd60e01b81526001600160a01b039384169181019190915260248101949094526044840187905291929116906323b872dd906064016020604051808303816000875af1158015610675573d6000803e3d6000fd5b505050506040513d601f19601f820116820180604052508101906106999190610b27565b9050806106e15760405162461bcd60e51b8152602060048201526016602482015275115c9c9bdc8e88151c985b9cd9995c8819985a5b195960521b604482015260640161044f565b60405184815233907f47cee97cb7acd717b3c0aa1435d004cd5b3c8c57d70dbceb4e4458bbd60e39d49060200160405180910390a250505050565b60008281526020819052604090206001015461073781610794565b6103438383610833565b600061074c81610794565b6002839055600382905560408051848152602081018490527f1da05f5e7764e0fd6d12d9644a13dc70a36f2aeecae5bc06c737985c5ee0f6ec910160405180910390a1505050565b61079e81336108b4565b50565b60006107ad83836103c0565b61082b576000838152602081815260408083206001600160a01b03861684529091529020805460ff191660011790556107e33390565b6001600160a01b0316826001600160a01b0316847f2f8788117e7eff1d82e926ec794901d17c78024a50270940304540a733656f0d60405160405180910390a45060016102b8565b5060006102b8565b600061083f83836103c0565b1561082b576000838152602081815260408083206001600160a01b0386168085529252808320805460ff1916905551339286917ff6391f5c32d9c69d2a47ea670b442974b53935d1edc7fd64eb21e047a839171b9190a45060016102b8565b6000826108ab85846108f1565b14949350505050565b6108be82826103c0565b6108ed5760405163e2517d3f60e01b81526001600160a01b03821660048201526024810183905260440161044f565b5050565b600081815b845181101561092c576109228286838151811061091557610915610b49565b6020026020010151610934565b91506001016108f6565b509392505050565b600081831061095057600082815260208490526040902061095f565b60008381526020839052604090205b9392505050565b60006020828403121561097857600080fd5b81356001600160e01b03198116811461095f57600080fd5b80356001600160a01b03811681146109a757600080fd5b919050565b6000602082840312156109be57600080fd5b61095f82610990565b6000602082840312156109d957600080fd5b5035919050565b600080604083850312156109f357600080fd5b82359150610a0360208401610990565b90509250929050565b634e487b7160e01b600052604160045260246000fd5b60008060408385031215610a3557600080fd5b8235915060208084013567ffffffffffffffff80821115610a5557600080fd5b818601915086601f830112610a6957600080fd5b813581811115610a7b57610a7b610a0c565b8060051b604051601f19603f83011681018181108582111715610aa057610aa0610a0c565b604052918252848201925083810185019189831115610abe57600080fd5b938501935b82851015610adc57843584529385019392850192610ac3565b8096505050505050509250929050565b60008060408385031215610aff57600080fd5b50508035926020909101359150565b600060208284031215610b2057600080fd5b5051919050565b600060208284031215610b3957600080fd5b8151801515811461095f57600080fd5b634e487b7160e01b600052603260045260246000fdfea264697066735822122079e49e07f07b05df6f24c41969d421a4b64f4e1929838d52ef21e358c263182564736f6c63430008180033",
  "linkReferences": {},
  "deployedLinkReferences": {}
}